{"abi":[{"type":"constructor","inputs":[{"name":"_usdc","type":"address","internalType":"address"},{"name":"_riskManager","type":"address","internalType":"address"},{"name":"_positionManager","type":"address","internalType":"address"},{"name":"_treasuryManager","type":"address","internalType":"address"},{"name":"_keeper","type":"address","internalType":"address"},{"name":"_backendSigner","type":"address","internalType":"address"}],"stateMutability":"nonpayable"},{"type":"function","name":"BACKEND_SIGNER_ROLE","inputs":[],"outputs":[{"name":"","type":"bytes32","internalType":"bytes32"}],"stateMutability":"view"},{"type":"function","name":"DEFAULT_ADMIN_ROLE","inputs":[],"outputs":[{"name":"","type":"bytes32","internalType":"bytes32"}],"stateMutability":"view"},{"type":"function","name":"KEEPER_ROLE","inputs":[],"outputs":[{"name":"","type":"bytes32","internalType":"bytes32"}],"stateMutability":"view"},{"type":"function","name":"ORDER_VALIDITY_PERIOD","inputs":[],"outputs":[{"name":"","type":"uint256","internalType":"uint256"}],"stateMutability":"view"},{"type":"function","name":"PRICE_VALIDITY_WINDOW","inputs":[],"outputs":[{"name":"","type":"uint256","internalType":"uint256"}],"stateMutability":"view"},{"type":"function","name":"cancelOrder","inputs":[{"name":"orderId","type":"uint256","internalType":"uint256"}],"outputs":[],"stateMutability":"nonpayable"},{"type":"function","name":"cancelledOrders","inputs":[{"name":"","type":"uint256","internalType":"uint256"}],"outputs":[{"name":"","type":"bool","internalType":"bool"}],"stateMutability":"view"},{"type":"function","name":"createLimitCloseOrder","inputs":[{"name":"trader","type":"address","internalType":"address"},{"name":"positionId","type":"uint256","internalType":"uint256"},{"name":"triggerPrice","type":"uint256","internalType":"uint256"},{"name":"nonce","type":"uint256","internalType":"uint256"},{"name":"expiresAt","type":"uint256","internalType":"uint256"},{"name":"userSignature","type":"bytes","internalType":"bytes"}],"outputs":[{"name":"orderId","type":"uint256","internalType":"uint256"}],"stateMutability":"nonpayable"},{"type":"function","name":"createLimitOpenOrder","inputs":[{"name":"trader","type":"address","internalType":"address"},{"name":"symbol","type":"string","internalType":"string"},{"name":"isLong","type":"bool","internalType":"bool"},{"name":"collateral","type":"uint256","internalType":"uint256"},{"name":"leverage","type":"uint256","internalType":"uint256"},{"name":"triggerPrice","type":"uint256","internalType":"uint256"},{"name":"nonce","type":"uint256","internalType":"uint256"},{"name":"expiresAt","type":"uint256","internalType":"uint256"},{"name":"userSignature","type":"bytes","internalType":"bytes"}],"outputs":[{"name":"orderId","type":"uint256","internalType":"uint256"}],"stateMutability":"nonpayable"},{"type":"function","name":"createStopLossOrder","inputs":[{"name":"trader","type":"address","internalType":"address"},{"name":"positionId","type":"uint256","internalType":"uint256"},{"name":"triggerPrice","type":"uint256","internalType":"uint256"},{"name":"nonce","type":"uint256","internalType":"uint256"},{"name":"expiresAt","type":"uint256","internalType":"uint256"},{"name":"userSignature","type":"bytes","internalType":"bytes"}],"outputs":[{"name":"orderId","type":"uint256","internalType":"uint256"}],"stateMutability":"nonpayable"},{"type":"function","name":"executeLimitCloseOrder","inputs":[{"name":"orderId","type":"uint256","internalType":"uint256"},{"name":"signedPrice","type":"tuple","internalType":"struct LimitExecutorV2.SignedPrice","components":[{"name":"symbol","type":"string","internalType":"string"},{"name":"price","type":"uint256","internalType":"uint256"},{"name":"timestamp","type":"uint256","internalType":"uint256"},{"name":"signature","type":"bytes","internalType":"bytes"}]}],"outputs":[],"stateMutability":"nonpayable"},{"type":"function","name":"executeLimitOpenOrder","inputs":[{"name":"orderId","type":"uint256","internalType":"uint256"},{"name":"signedPrice","type":"tuple","internalType":"struct LimitExecutorV2.SignedPrice","components":[{"name":"symbol","type":"string","internalType":"string"},{"name":"price","type":"uint256","internalType":"uint256"},{"name":"timestamp","type":"uint256","internalType":"uint256"},{"name":"signature","type":"bytes","internalType":"bytes"}]}],"outputs":[],"stateMutability":"nonpayable"},{"type":"function","name":"executeStopLossOrder","inputs":[{"name":"orderId","type":"uint256","internalType":"uint256"},{"name":"signedPrice","type":"tuple","internalType":"struct LimitExecutorV2.SignedPrice","components":[{"name":"symbol","type":"string","internalType":"string"},{"name":"price","type":"uint256","internalType":"uint256"},{"name":"timestamp","type":"uint256","internalType":"uint256"},{"name":"signature","type":"bytes","internalType":"bytes"}]}],"outputs":[],"stateMutability":"nonpayable"},{"type":"function","name":"getOrder","inputs":[{"name":"orderId","type":"uint256","internalType":"uint256"}],"outputs":[{"name":"","type":"tuple","internalType":"struct LimitExecutorV2.Order","components":[{"name":"id","type":"uint256","internalType":"uint256"},{"name":"orderType","type":"uint8","internalType":"enum LimitExecutorV2.OrderType"},{"name":"status","type":"uint8","internalType":"enum LimitExecutorV2.OrderStatus"},{"name":"trader","type":"address","internalType":"address"},{"name":"symbol","type":"string","internalType":"string"},{"name":"isLong","type":"bool","internalType":"bool"},{"name":"collateral","type":"uint256","internalType":"uint256"},{"name":"leverage","type":"uint256","internalType":"uint256"},{"name":"triggerPrice","type":"uint256","internalType":"uint256"},{"name":"positionId","type":"uint256","internalType":"uint256"},{"name":"createdAt","type":"uint256","internalType":"uint256"},{"name":"executedAt","type":"uint256","internalType":"uint256"},{"name":"expiresAt","type":"uint256","internalType":"uint256"},{"name":"nonce","type":"uint256","internalType":"uint256"}]}],"stateMutability":"view"},{"type":"function","name":"getRoleAdmin","inputs":[{"name":"role","type":"bytes32","internalType":"bytes32"}],"outputs":[{"name":"","type":"bytes32","internalType":"bytes32"}],"stateMutability":"view"},{"type":"function","name":"getUserCurrentNonce","inputs":[{"name":"user","type":"address","internalType":"address"}],"outputs":[{"name":"","type":"uint256","internalType":"uint256"}],"stateMutability":"view"},{"type":"function","name":"getUserOrders","inputs":[{"name":"user","type":"address","internalType":"address"}],"outputs":[{"name":"","type":"uint256[]","internalType":"uint256[]"}],"stateMutability":"view"},{"type":"function","name":"getUserPendingOrders","inputs":[{"name":"user","type":"address","internalType":"address"}],"outputs":[{"name":"","type":"tuple[]","internalType":"struct LimitExecutorV2.Order[]","components":[{"name":"id","type":"uint256","internalType":"uint256"},{"name":"orderType","type":"uint8","internalType":"enum LimitExecutorV2.OrderType"},{"name":"status","type":"uint8","internalType":"enum LimitExecutorV2.OrderStatus"},{"name":"trader","type":"address","internalType":"address"},{"name":"symbol","type":"string","internalType":"string"},{"name":"isLong","type":"bool","internalType":"bool"},{"name":"collateral","type":"uint256","internalType":"uint256"},{"name":"leverage","type":"uint256","internalType":"uint256"},{"name":"triggerPrice","type":"uint256","internalType":"uint256"},{"name":"positionId","type":"uint256","internalType":"uint256"},{"name":"createdAt","type":"uint256","internalType":"uint256"},{"name":"executedAt","type":"uint256","internalType":"uint256"},{"name":"expiresAt","type":"uint256","internalType":"uint256"},{"name":"nonce","type":"uint256","internalType":"uint256"}]}],"stateMutability":"view"},{"type":"function","name":"grantRole","inputs":[{"name":"role","type":"bytes32","internalType":"bytes32"},{"name":"account","type":"address","internalType":"address"}],"outputs":[],"stateMutability":"nonpayable"},{"type":"function","name":"hasRole","inputs":[{"name":"role","type":"bytes32","internalType":"bytes32"},{"name":"account","type":"address","internalType":"address"}],"outputs":[{"name":"","type":"bool","internalType":"bool"}],"stateMutability":"view"},{"type":"function","name":"nextOrderId","inputs":[],"outputs":[{"name":"","type":"uint256","internalType":"uint256"}],"stateMutability":"view"},{"type":"function","name":"orders","inputs":[{"name":"","type":"uint256","internalType":"uint256"}],"outputs":[{"name":"id","type":"uint256","internalType":"uint256"},{"name":"orderType","type":"uint8","internalType":"enum LimitExecutorV2.OrderType"},{"name":"status","type":"uint8","internalType":"enum LimitExecutorV2.OrderStatus"},{"name":"trader","type":"address","internalType":"address"},{"name":"symbol","type":"string","internalType":"string"},{"name":"isLong","type":"bool","internalType":"bool"},{"name":"collateral","type":"uint256","internalType":"uint256"},{"name":"leverage","type":"uint256","internalType":"uint256"},{"name":"triggerPrice","type":"uint256","internalType":"uint256"},{"name":"positionId","type":"uint256","internalType":"uint256"},{"name":"createdAt","type":"uint256","internalType":"uint256"},{"name":"executedAt","type":"uint256","internalType":"uint256"},{"name":"expiresAt","type":"uint256","internalType":"uint256"},{"name":"nonce","type":"uint256","internalType":"uint256"}],"stateMutability":"view"},{"type":"function","name":"positionManager","inputs":[],"outputs":[{"name":"","type":"address","internalType":"contract IPositionManager"}],"stateMutability":"view"},{"type":"function","name":"renounceRole","inputs":[{"name":"role","type":"bytes32","internalType":"bytes32"},{"name":"callerConfirmation","type":"address","internalType":"address"}],"outputs":[],"stateMutability":"nonpayable"},{"type":"function","name":"revokeRole","inputs":[{"name":"role","type":"bytes32","internalType":"bytes32"},{"name":"account","type":"address","internalType":"address"}],"outputs":[],"stateMutability":"nonpayable"},{"type":"function","name":"riskManager","inputs":[],"outputs":[{"name":"","type":"address","internalType":"contract IRiskManager"}],"stateMutability":"view"},{"type":"function","name":"supportsInterface","inputs":[{"name":"interfaceId","type":"bytes4","internalType":"bytes4"}],"outputs":[{"name":"","type":"bool","internalType":"bool"}],"stateMutability":"view"},{"type":"function","name":"tradingFeeBps","inputs":[],"outputs":[{"name":"","type":"uint256","internalType":"uint256"}],"stateMutability":"view"},{"type":"function","name":"treasuryManager","inputs":[],"outputs":[{"name":"","type":"address","internalType":"contract ITreasuryManager"}],"stateMutability":"view"},{"type":"function","name":"updateContracts","inputs":[{"name":"_riskManager","type":"address","internalType":"address"},{"name":"_positionManager","type":"address","internalType":"address"},{"name":"_treasuryManager","type":"address","internalType":"address"}],"outputs":[],"stateMutability":"nonpayable"},{"type":"function","name":"updateTradingFee","inputs":[{"name":"_tradingFeeBps","type":"uint256","internalType":"uint256"}],"outputs":[],"stateMutability":"nonpayable"},{"type":"function","name":"usdc","inputs":[],"outputs":[{"name":"","type":"address","internalType":"contract IERC20"}],"stateMutability":"view"},{"type":"function","name":"userOrderNonces","inputs":[{"name":"","type":"address","internalType":"address"}],"outputs":[{"name":"","type":"uint256","internalType":"uint256"}],"stateMutability":"view"},{"type":"function","name":"userOrders","inputs":[{"name":"","type":"address","internalType":"address"},{"name":"","type":"uint256","internalType":"uint256"}],"outputs":[{"name":"","type":"uint256","internalType":"uint256"}],"stateMutability":"view"},{"type":"event","name":"BadDebtCovered","inputs":[{"name":"trader","type":"address","indexed":true,"internalType":"address"},{"name":"excessLoss","type":"uint256","indexed":false,"internalType":"uint256"},{"name":"totalLoss","type":"uint256","indexed":false,"internalType":"uint256"}],"anonymous":false},{"type":"event","name":"LimitOrderCancelled","inputs":[{"name":"orderId","type":"uint256","indexed":true,"internalType":"uint256"},{"name":"trader","type":"address","indexed":true,"internalType":"address"}],"anonymous":false},{"type":"event","name":"LimitOrderCreated","inputs":[{"name":"orderId","type":"uint256","indexed":true,"internalType":"uint256"},{"name":"trader","type":"address","indexed":true,"internalType":"address"},{"name":"orderType","type":"uint8","indexed":false,"internalType":"enum LimitExecutorV2.OrderType"},{"name":"symbol","type":"string","indexed":false,"internalType":"string"},{"name":"triggerPrice","type":"uint256","indexed":false,"internalType":"uint256"},{"name":"nonce","type":"uint256","indexed":false,"internalType":"uint256"}],"anonymous":false},{"type":"event","name":"LimitOrderExecuted","inputs":[{"name":"orderId","type":"uint256","indexed":true,"internalType":"uint256"},{"name":"positionId","type":"uint256","indexed":true,"internalType":"uint256"},{"name":"keeper","type":"address","indexed":true,"internalType":"address"},{"name":"executionPrice","type":"uint256","indexed":false,"internalType":"uint256"}],"anonymous":false},{"type":"event","name":"RoleAdminChanged","inputs":[{"name":"role","type":"bytes32","indexed":true,"internalType":"bytes32"},{"name":"previousAdminRole","type":"bytes32","indexed":true,"internalType":"bytes32"},{"name":"newAdminRole","type":"bytes32","indexed":true,"internalType":"bytes32"}],"anonymous":false},{"type":"event","name":"RoleGranted","inputs":[{"name":"role","type":"bytes32","indexed":true,"internalType":"bytes32"},{"name":"account","type":"address","indexed":true,"internalType":"address"},{"name":"sender","type":"address","indexed":true,"internalType":"address"}],"anonymous":false},{"type":"event","name":"RoleRevoked","inputs":[{"name":"role","type":"bytes32","indexed":true,"internalType":"bytes32"},{"name":"account","type":"address","indexed":true,"internalType":"address"},{"name":"sender","type":"address","indexed":true,"internalType":"address"}],"anonymous":false},{"type":"event","name":"StopLossTriggered","inputs":[{"name":"orderId","type":"uint256","indexed":true,"internalType":"uint256"},{"name":"positionId","type":"uint256","indexed":true,"internalType":"uint256"},{"name":"keeper","type":"address","indexed":true,"internalType":"address"},{"name":"exitPrice","type":"uint256","indexed":false,"internalType":"uint256"},{"name":"pnl","type":"int256","indexed":false,"internalType":"int256"}],"anonymous":false},{"type":"event","name":"TotalLiquidation","inputs":[{"name":"trader","type":"address","indexed":true,"internalType":"address"},{"name":"collateral","type":"uint256","indexed":false,"internalType":"uint256"}],"anonymous":false},{"type":"event","name":"TradingFeeUpdated","inputs":[{"name":"tradingFeeBps","type":"uint256","indexed":false,"internalType":"uint256"}],"anonymous":false},{"type":"error","name":"AccessControlBadConfirmation","inputs":[]},{"type":"error","name":"AccessControlUnauthorizedAccount","inputs":[{"name":"account","type":"address","internalType":"address"},{"name":"neededRole","type":"bytes32","internalType":"bytes32"}]},{"type":"error","name":"ECDSAInvalidSignature","inputs":[]},{"type":"error","name":"ECDSAInvalidSignatureLength","inputs":[{"name":"length","type":"uint256","internalType":"uint256"}]},{"type":"error","name":"ECDSAInvalidSignatureS","inputs":[{"name":"s","type":"bytes32","internalType":"bytes32"}]},{"type":"error","name":"ReentrancyGuardReentrantCall","inputs":[]}],"bytecode":{"object":"0x60a0346200031757601f62003db838819003918201601f191683019291906001600160401b038411838510176200031c578160c092849260409687528339810103126200031757620000518162000332565b906020916200006283830162000332565b6200006f85840162000332565b906200007e6060850162000332565b906200009b60a0620000936080880162000332565b960162000332565b600180805560058055600655956001600160a01b03948516918215620002d35785169384156200028457851692831562000231578516948515620001de57808716156200019a57871615620001575750916200013193916200013896959360805260018060a01b03199182600254161760025581600354161760035560045416176004556200012a3362000347565b50620003c7565b5062000469565b5051613891908162000507823960805181818161135101526122ce0152f35b60649088519062461bcd60e51b82526004820152601d60248201527f4c696d69744578656375746f723a20496e76616c6964207369676e65720000006044820152fd5b885162461bcd60e51b815260048101839052601d60248201527f4c696d69744578656375746f723a20496e76616c6964206b65657065720000006044820152606490fd5b885162461bcd60e51b815260048101839052602660248201527f4c696d69744578656375746f723a20496e76616c69642054726561737572794d60448201526530b730b3b2b960d11b6064820152608490fd5b885162461bcd60e51b815260048101839052602660248201527f4c696d69744578656375746f723a20496e76616c696420506f736974696f6e4d60448201526530b730b3b2b960d11b6064820152608490fd5b885162461bcd60e51b815260048101839052602260248201527f4c696d69744578656375746f723a20496e76616c6964205269736b4d616e616760448201526132b960f11b6064820152608490fd5b885162461bcd60e51b815260048101839052601b60248201527f4c696d69744578656375746f723a20496e76616c6964205553444300000000006044820152606490fd5b600080fd5b634e487b7160e01b600052604160045260246000fd5b51906001600160a01b03821682036200031757565b6001600160a01b031660008181527fad3228b676f7d3cd4284a5443f17f1962b36e491b30a40b2405849e597ba5fb5602052604081205490919060ff16620003c357818052816020526040822081835260205260408220600160ff19825416179055339160008051602062003d988339815191528180a4600190565b5090565b6001600160a01b031660008181527f0363fc6b1c9d3a5e0ab0c2ddc08deb0f30108829db06e84f370d2858ffe78c4660205260408120549091907ffc8737ab85eb45125971625a9ebdb75cc78e01d5c1fa80c4c6e5203f47bc4fab9060ff166200046457808352826020526040832082845260205260408320600160ff1982541617905560008051602062003d98833981519152339380a4600190565b505090565b6001600160a01b031660008181527f92731b430a99d226833495b5b5a9eee62a15e2a9df1b0a790bc8afce8b03780660205260408120549091907f9c6721068556a3c372f1c2ef739a54f29e29d287d6ef1e7b26a65200f38e6fb09060ff166200046457808352826020526040832082845260205260408320600160ff1982541617905560008051602062003d98833981519152339380a460019056fe608080604052600436101561001357600080fd5b60003560e01c90816301ffc9a7146126a1575080630e1df2f514612434578063248a9ca3146124055780632a58b330146123e75780632f2ff15d146123a8578063364bc15a1461236d57806336568abe146123265780633cea70d9146122fd5780633e413bee146122b8578063478426631461228f578063514fcac71461215657806353f7af1614611cb057806363c69f08146120a25780636c7ad1f014611db85780636dca4d4414611d13578063791b98bc14611cea5780637acba68014611cb05780637bc6a97214611716578063856652e9146116be57806391d1485414611671578063924cca9a1461165357806392feadb514611635578063a217fddf14611619578063a46347391461119c578063a85c38ef1461108e578063af607c3514610c38578063b54496b014610c1b578063b854290314610904578063bc15e601146108d3578063d09ef241146107bc578063d547741f1461077b578063d97ef2b314610740578063e1a67828146106af5763f19de9d81461019557600080fd5b346106aa5760246101a536612953565b6101b6979296939795919495612a61565b6101be612de4565b6101c9861515612c2e565b6101d4874210612c72565b60018060a01b039485851660005260096020526101f76040600020548a14612cae565b600086600354166040519586809263eb02c30160e01b82528760048301525afa93841561069e57600094610667575b50610301610315926102fb61030a936102488a8a168b60208b015116146131e1565b61026c60ff6101208a015161025c816128eb565b610265816128eb565b1615613222565b8c60405160208101916001600160601b03198c60601b1683528960348301528d605483015260748201528d60948201523060601b60b48201526853544f505f4c4f535360b81b60c882015260b181526102c4816128af565b5190207f19457468657265756d205369676e6564204d6573736167653a0a333200000000600052601c52603c600020923691612d05565b90612e07565b90929192612ed3565b851684861614612d3c565b8383166000526009602052604060002061032f8154612d7c565b90556006549561033e87612d7c565b6006556040830151916040519261035484612880565b888452600260208501526000604085015286861660608501526080840152600060a0840152600060c0840152600060e084015286610100840152610120830152426101408301526000610160830152610180820152866101a0820152856000526007602052604060002090805182556001820160208201516103d5816128eb565b6103de816128eb565b60ff8019835416911617815561040160408301516103fb816128eb565b82612d8b565b6060820151815462010000600160b01b03191660109190911b62010000600160b01b031617905560808101518051906001600160401b0382116106515761044b60028501546127b0565b601f811161060a575b5091602099959391899795938b90601f831160011461057a576101a0604094846105539a989560008051602061383c8339815191529c9a9895600b9560009261056f575b50508160011b916000199060031b1c19161760028501555b6104cf60a08201511515600386019060ff801983541691151516179055565b60c0810151600485015560e081015160058501556101008101516006850155610120810151600785015561014081015160088501556101608101516009850155610180810151600a850155015191015583831660005260088b526105368883600020612daa565b0151926040519485946002865260808c870152608086019061292e565b976040850152606084015216940390a360018055604051908152f35b015190503880610498565b90600285016000528c6000209160005b601f19851681106105f0575060409460018560008051602061383c8339815191529c9a9895600b956101a0956105539e9c99601f198116106105d7575b505050811b0160028501556104b0565b015160001960f88460031b161c191690553880806105c7565b8183015184558d9b50600190930192918e01918e0161058a565b600285016000526020600020601f840160051c81016020851061064a575b601f830160051c8201811061063e575050610454565b60008155600101610628565b5080610628565b634e487b7160e01b600052604160045260246000fd5b61030a919450610315926102fb610693610301933d806000833e61068b81836128ca565b8101906130d5565b969350509250610226565b6040513d6000823e3d90fd5b600080fd5b346106aa5760203660031901126106aa576004356106cb612adb565b60648111610704576020817fa3dfe13986da4bcfdc32f544ebe130cb8ec20a2afc45e7c3994975076a08e57892600555604051908152a1005b60405162461bcd60e51b81526020600482015260146024820152730a8e4c2c8d2dcce40cccaca40e8dede40d0d2ced60631b6044820152606490fd5b346106aa5760003660031901126106aa5760206040517f9c6721068556a3c372f1c2ef739a54f29e29d287d6ef1e7b26a65200f38e6fb08152f35b346106aa5760403660031901126106aa576107ba60043561079a612729565b908060005260006020526107b5600160406000200154612b15565b612bb9565b005b346106aa5760203660031901126106aa576107d561340d565b5060043560005260076020526108cf6040600020600b604051916107f883612880565b80548352600181015460ff811661080e816128eb565b602085015260ff8160081c16610823816128eb565b604085015260018060a01b039060101c1660608401526040516108548161084d81600286016127ea565b03826128ca565b608084015260ff600382015416151560a0840152600481015460c0840152600581015460e08401526006810154610100840152600781015461012084015260088101546101408401526009810154610160840152600a81015461018084015201546101a08201526040519182916020835260208301906129a6565b0390f35b346106aa5760203660031901126106aa57600435600052600a602052602060ff604060002054166040519015158152f35b346106aa576020806003193601126106aa576001600160a01b038061092761273f565b166000526008808352604060002092604051808583829754938481520190600052836000209260005b85828210610c0557505050610967925003856128ca565b60009160005b85518110156109ec576109808187613476565b51806000526007845260ff80600160406000200154851c166109a1816128eb565b1591826109d3575b50506109be575b6109b990612d7c565b61096d565b926109cb6109b991612d7c565b9390506109b0565b909150600052600a8452604060002054161587806109a9565b509192906109f98461348a565b93610a0760405195866128ca565b808552610a16601f199161348a565b018160005b828110610bef5750505060009160005b8651811015610b9157610a3e8188613476565b5180600052600780855260ff906001928284604060002001548a1c16610a63816128eb565b1580610b7a575b610a81575b50505050610a7c90612d7c565b610a2b565b610a7c949792610b709492600b92600052808952604060002091888c828c60405198610aac8a612880565b87548a5287015492839183831690610ac3826128eb565b8b01521c16610ad1816128eb565b604088015260101c166060860152604051610af38161084d81600288016127ea565b6080860152600383015416151560a0850152600482015460c0850152600582015460e08501526006820154610100850152810154610120840152898101546101408401526009810154610160840152600a81015461018084015201546101a0820152610b5f828a613476565b52610b6a8189613476565b50612d7c565b9390888080610a6f565b5080600052600a8752826040600020541615610a6a565b604080518481528751818601819052600092600582901b83018101918a880191889085015b828710610bc35785850386f35b909192938280610bdf600193603f198a820301865288516129a6565b9601920196019592919092610bb6565b610bf761340d565b828289010152018290610a1b565b855484526001958601958a955093019201610950565b346106aa5760003660031901126106aa57602060405161012c8152f35b346106aa576024610c4836612953565b610c59979296939795919495612a61565b610c61612de4565b610c6c861515612c2e565b610c77874210612c72565b60018060a01b03948585166000526009602052610c9a6040600020548a14612cae565b600086600354166040519586809263eb02c30160e01b82528760048301525afa93841561069e5760009461105f575b50610301610d45926102fb61030a93610ceb8a8a168b60208b015116146131e1565b610cff60ff6101208a015161025c816128eb565b8c60405160208101916001600160601b03198c60601b1683528960348301528d605483015260748201528d60948201523060601b60b482015260a881526102c4816128af565b83831660005260096020526040600020610d5f8154612d7c565b905560065495610d6e87612d7c565b60065560408301519160405192610d8484612880565b888452600160208501526000604085015286861660608501526080840152600060a0840152600060c0840152600060e084015286610100840152610120830152426101408301526000610160830152610180820152866101a082015285600052600760205260406000209080518255600182016020820151610e05816128eb565b610e0e816128eb565b60ff80198354169116178155610e2b60408301516103fb816128eb565b6060820151815462010000600160b01b03191660109190911b62010000600160b01b031617905560808101518051906001600160401b03821161065157610e7560028501546127b0565b601f8111611018575b5091602099959391899795938b90601f8311600114610f88576101a0604094846105539a989560008051602061383c8339815191529c9a9895600b95600092610f7d575b50508160011b916000199060031b1c19161760028501555b610ef960a08201511515600386019060ff801983541691151516179055565b60c0810151600485015560e081015160058501556101008101516006850155610120810151600785015561014081015160088501556101608101516009850155610180810151600a850155015191015583831660005260088b52610f608883600020612daa565b0151926040519485946001865260808c870152608086019061292e565b015190503880610ec2565b90600285016000528c6000209160005b601f1985168110610ffe575060409460018560008051602061383c8339815191529c9a9895600b956101a0956105539e9c99601f19811610610fe5575b505050811b016002850155610eda565b015160001960f88460031b161c19169055388080610fd5565b8183015184558d9b50600190930192918e01918e01610f98565b600285016000526020600020601f840160051c810160208510611058575b601f830160051c8201811061104c575050610e7e565b60008155600101611036565b5080611036565b61030a919450610d45926102fb611083610301933d806000833e61068b81836128ca565b969350509250610cc9565b346106aa5760203660031901126106aa5760043560005260076020526020604060002080549060018101549060ff821690604051926110db846110d481600286016127ea565b03856128ca565b60ff6003830154169360048301546005840154600685015490600786015492611162600888015495600989015497600b600a8b01549a01549a6040519e8f9e8f908152611127836128eb565b01528c604060ff8360081c169161113d836128eb565b015260101c6001600160a01b031660608d01526101c060808d018190528c019061292e565b98151560a08b015260c08a015260e08901526101008801526101208701526101408601526101608501526101808401526101a08301520390f35b346106aa576111aa366126f4565b906111b3612a61565b6111bb612de4565b8060005260076020526040600020906111d682541515612f42565b80600052600a6020526111f160ff6040600020541615612f80565b60018201549161121060ff8460081c1661120a816128eb565b15612fbe565b60ff831661121d816128eb565b6115e357611230600a8201544210612c72565b6040516112448161084d81600286016127ea565b6020815191012061125f6112588680612ffe565b3691612d05565b60208151910120036115ac5761127484613275565b600381015460ff1680156115935761129660068301546020870135111561307c565b60018060a01b03600254166005830154602060048501968754936040518080958194631a14f6d760e21b835260018060a01b039060101c169889600484015260a060248401526112ec60a4840160028d016127ea565b9160448401528860648401521515608483015203915afa90811561069e57600091611559575b50156115145760018060a01b0360045416604051926323b872dd60e01b8452600484015260248301526044820152602081606481600060018060a01b037f0000000000000000000000000000000000000000000000000000000000000000165af190811561069e576000916114da575b501561149e57602060018060a01b03600354169460018060a01b03600184015460101c169560ff60038501541695546000846005870154940135986040519889958694859363c286db6960e01b8552600485015260c060248501526113ed60c4850160028c016127ea565b9215156044850152606484015260848301528a60a483015203925af192831561069e5760009361146a575b5061010061ff00196001830154161760018201558260078201556009429101556040519283527f5612466bb8a3ed2e193f1b34bea4b4797559a2028ea2a01391d0a276601793af60203394a460018055005b9092506020813d602011611496575b81611486602093836128ca565b810103126106aa57519184611418565b3d9150611479565b60405162461bcd60e51b81526020600482015260146024820152731554d110c81d1c985b9cd9995c8819985a5b195960621b6044820152606490fd5b90506020813d60201161150c575b816114f5602093836128ca565b810103126106aa57611506906130c8565b85611382565b3d91506114e8565b60405162461bcd60e51b815260206004820152601760248201527f54726164652076616c69646174696f6e206661696c65640000000000000000006044820152606490fd5b90506020813d60201161158b575b81611574602093836128ca565b810103126106aa57611585906130c8565b87611312565b3d9150611567565b6115a7600683015460208701351015613030565b611296565b60405162461bcd60e51b815260206004820152600f60248201526e0a6f2dac4ded840dad2e6dac2e8c6d608b1b6044820152606490fd5b60405162461bcd60e51b815260206004820152600e60248201526d2737ba103634b6b4ba1037b832b760911b6044820152606490fd5b346106aa5760003660031901126106aa57602060405160008152f35b346106aa5760003660031901126106aa57602060405162278d008152f35b346106aa5760003660031901126106aa576020600554604051908152f35b346106aa5760403660031901126106aa5761168a612729565b600435600052600060205260406000209060018060a01b0316600052602052602060ff604060002054166040519015158152f35b346106aa5760403660031901126106aa576116d761273f565b6001600160a01b03166000908152600860205260409020805460243591908210156106aa5760209161170891612782565b90546040519160031b1c8152f35b346106aa576101203660031901126106aa5761173061273f565b6024356001600160401b0381116106aa5761174f903690600401612755565b6044359182151583036106aa57610104356001600160401b0381116106aa5761177c903690600401612755565b611784612a61565b61178c612de4565b60643515611c765760843515611c3e576117a960a4351515612c2e565b6117b660e4354210612c72565b62278d004201804211611c285760e43511611bf25761030161186f916102fb6118829460018060a01b038a1660005260096020526117fc60406000205460c43514612cae565b60405160208101906001600160601b03198c60601b168252898960348301376102c460e9828d8d820190151560f81b60348201526064356035820152608435605582015260a435607582015260c435609582015260e43560b58201523060601b60d58201520360c98101845201826128ca565b6001600160a01b03868116911614612d3c565b6001600160a01b038416600090815260096020526040902080546118a590612d7c565b9055600654926118b484612d7c565b600655604051906118c482612880565b84825260006020830181905260408301526001600160a01b03861660608301526118ef368585612d05565b6080830152151560a082015260643560c082015260843560e082015260a435610100820152600061012082015242610140820152600061016082015260e43561018082015260c4356101a082015283600052600760205260406000209080518255600182016020820151611962816128eb565b61196b816128eb565b60ff8019835416911617815561198860408301516103fb816128eb565b6060820151815462010000600160b01b03191660109190911b62010000600160b01b031617905560808101518051906001600160401b038211610651576119d260028501546127b0565b601f8111611bab575b509285926020989288958a90601f8311600114611b1c5760a095938360008051602061383c833981519152999a9694600b946101a094600092611b11575b50508160011b916000199060031b1c19161760028501555b611a4f878201511515600386019060ff801983541691151516179055565b60c0810151600485015560e081015160058501556101008101516006850155610120810151600785015561014081015160088501556101608101516009850155610180810151600a8501550151910155600180841b03811660005260088952611abc866040600020612daa565b6040519384926000845260808b85015281608085015284840137600082880184015260a435604083015260c43560608301526000196001841b011695601f01601f19168101030190a360018055604051908152f35b015190508f80611a19565b90600285016000528b6000209160005b601f1985168110611b8e575093600184600b946101a09460a09a9860008051602061383c8339815191529d9e9a98601f19811610611b75575b505050811b016002850155611a31565b015160001960f88460031b161c191690558f8080611b65565b8282015184558c99508b9850600190930192918d01918d01611b2c565b600285016000526020600020601f840160051c810160208510611beb575b601f830160051c82018110611bdf5750506119db565b60008155600101611bc9565b5080611bc9565b60405162461bcd60e51b815260206004820152600e60248201526d22bc3834b93c903a37b7903330b960911b6044820152606490fd5b634e487b7160e01b600052601160045260246000fd5b60405162461bcd60e51b815260206004820152601060248201526f496e76616c6964206c6576657261676560801b6044820152606490fd5b60405162461bcd60e51b8152602060048201526012602482015271125b9d985b1a590818dbdb1b185d195c985b60721b6044820152606490fd5b346106aa5760203660031901126106aa576001600160a01b03611cd161273f565b1660005260096020526020604060002054604051908152f35b346106aa5760003660031901126106aa576003546040516001600160a01b039091168152602090f35b346106aa5760603660031901126106aa57611d2c61273f565b611d34612729565b6044356001600160a01b03818116939092918490036106aa578290611d57612adb565b1680611d9f575b501680611d86575b5080611d6e57005b6001600160601b0360a01b6004541617600455600080f35b6001600160601b0360a01b600354161760035581611d66565b6001600160601b0360a01b600254161760025583611d5e565b346106aa57611dc6366126f4565b90611dcf612a61565b611dd7612de4565b80600052602090600782526040600020611df381541515612f42565b81600052600a8352611e0d60ff6040600020541615612f80565b6001810190600260ff8354611e2a828260081c1661120a816128eb565b16611e34816128eb565b0361206d57611e48600a8201544210612c72565b611e5185613275565b60035460078201805460405163eb02c30160e01b81526004810182905290976001600160a01b039384169592949391906000826024818a5afa91821561069e57600092612050575b50611eae60ff61012084015161025c816128eb565b606082015115611ff25760068501548982013511611fad576044998980925b01359a8b9160006040519a8b948593632d6ce61d60e01b8552600485015260248401525af195861561069e57600096611f7a575b509085826080620186a0611f1f60a0611f3097015160055490613262565b0493865460101c16910151906134bf565b61010061ff001982541617905560094291015554926040519485528401527f5100c791f386a025bd2a581f13fee92c3a36f68c3050129a2f97eec8fd7ce83960403394a460018055005b919095508782813d8311611fa6575b611f9381836128ca565b810103126106aa57905194611f30611f01565b503d611f89565b60405162461bcd60e51b8152600481018a9052601960248201527f53746f70206e6f742074726967676572656420286c6f6e6729000000000000006044820152606490fd5b6006850154898201351061200b57604499898092611ecd565b60405162461bcd60e51b8152600481018a9052601a60248201527f53746f70206e6f7420747269676765726564202873686f7274290000000000006044820152606490fd5b6120669192503d806000833e61068b81836128ca565b908a611e99565b60405162461bcd60e51b815260048101859052600d60248201526c4e6f742073746f70206c6f737360981b6044820152606490fd5b346106aa576020806003193601126106aa576001600160a01b036120c461273f565b1660005260088152604060002060405190818382549182815201908192600052846000209060005b86828210612142578686612102828803836128ca565b604051928392818401908285525180915260408401929160005b82811061212b57505050500390f35b83518552869550938101939281019260010161211c565b8354855290930192600192830192016120ec565b346106aa576020806003193601126106aa5760043590612174612de4565b81600052600781526001604060002061218f81541515612f42565b01805433601082901c6001600160a01b031603612258576121b960ff8260081c1661120a816128eb565b83600052600a835260ff6040600020541661221f5761ff0019166102001790556000828152600a90915260408120805460ff191660011790553391907f34cf495316dbb07c8286e6c6b35542a47854aaf8050f2dd51ab0347b855582979080a360018055005b60405162461bcd60e51b8152600481018490526011602482015270105b1c9958591e4818d85b98d95b1b1959607a1b6044820152606490fd5b60405162461bcd60e51b815260048101849052600f60248201526e2737ba1037b93232b91037bbb732b960891b6044820152606490fd5b346106aa5760003660031901126106aa576002546040516001600160a01b039091168152602090f35b346106aa5760003660031901126106aa576040517f00000000000000000000000000000000000000000000000000000000000000006001600160a01b03168152602090f35b346106aa5760003660031901126106aa576004546040516001600160a01b039091168152602090f35b346106aa5760403660031901126106aa5761233f612729565b336001600160a01b0382160361235b576107ba90600435612bb9565b60405163334bd91960e11b8152600490fd5b346106aa5760003660031901126106aa5760206040517ffc8737ab85eb45125971625a9ebdb75cc78e01d5c1fa80c4c6e5203f47bc4fab8152f35b346106aa5760403660031901126106aa576107ba6004356123c7612729565b908060005260006020526123e2600160406000200154612b15565b612b3b565b346106aa5760003660031901126106aa576020600654604051908152f35b346106aa5760203660031901126106aa5760043560005260006020526020600160406000200154604051908152f35b346106aa57612442366126f4565b9061244b612a61565b612453612de4565b8060005260209060078252604060002061246f81541515612f42565b81600052600a835261248960ff6040600020541615612f80565b60018101600160ff82546124a5828260081c1661120a816128eb565b166124af816128eb565b0361266a576124c3600a8301544210612c72565b6124cc85613275565b60035460078301805460405163eb02c30160e01b8152600481018290526001600160a01b03959294929386169190600081602481865afa91821561069e5760449a8a9260009461264b575b50829061252e60ff61012087015161025c816128eb565b6060850151156126335761254b600689015483830135101561307c565b01359a8b9160006040519687948593632d6ce61d60e01b8552600485015260248401525af191821561069e576000926125e2575b50946125be91866080620186a0611f1f60a07f5612466bb8a3ed2e193f1b34bea4b4797559a2028ea2a01391d0a276601793af9b015160055490613262565b61010061ff001982541617905560094291015554926040519485523394a460018055005b9150948782813d831161262c575b6125fa81836128ca565b810103126106aa57905190947f5612466bb8a3ed2e193f1b34bea4b4797559a2028ea2a01391d0a276601793af61257f565b503d6125f0565b6126466006890154838301351115613030565b61254b565b83919450612663903d806000833e61068b81836128ca565b9390612517565b60405162461bcd60e51b815260048101859052600f60248201526e4e6f74206c696d697420636c6f736560881b6044820152606490fd5b346106aa5760203660031901126106aa576004359063ffffffff60e01b82168092036106aa57602091637965db0b60e01b81149081156126e3575b5015158152f35b6301ffc9a760e01b149050836126dc565b906003196040818401126106aa5760043592602435916001600160401b0383116106aa57826080920301126106aa5760040190565b602435906001600160a01b03821682036106aa57565b600435906001600160a01b03821682036106aa57565b9181601f840112156106aa578235916001600160401b0383116106aa57602083818601950101116106aa57565b805482101561279a5760005260206000200190600090565b634e487b7160e01b600052603260045260246000fd5b90600182811c921680156127e0575b60208310146127ca57565b634e487b7160e01b600052602260045260246000fd5b91607f16916127bf565b90600092918054916127fb836127b0565b91828252600193848116908160001461285d575060011461281d575b50505050565b90919394506000526020928360002092846000945b838610612849575050505001019038808080612817565b805485870183015294019385908201612832565b9294505050602093945060ff191683830152151560051b01019038808080612817565b6101c081019081106001600160401b0382111761065157604052565b6001600160401b03811161065157604052565b60e081019081106001600160401b0382111761065157604052565b90601f801991011681019081106001600160401b0382111761065157604052565b600311156128f557565b634e487b7160e01b600052602160045260246000fd5b60005b83811061291e5750506000910152565b818101518382015260200161290e565b906020916129478151809281855285808601910161290b565b601f01601f1916010190565b9060c06003198301126106aa576004356001600160a01b03811681036106aa57916024359160443591606435916084359160a435906001600160401b0382116106aa576129a291600401612755565b9091565b908151815260208201516129b9816128eb565b602082015260408201516129cc816128eb565b604082015260018060a01b0360608301511660608201526129fc60808301516101c080608085015283019061292e565b9160a0810151151560a083015260c081015160c083015260e081015160e0830152610100808201519083015261012080820151908301526101408082015190830152610160808201519083015261018080820151908301526101a08091015191015290565b3360009081527f0363fc6b1c9d3a5e0ab0c2ddc08deb0f30108829db06e84f370d2858ffe78c4660205260409020547ffc8737ab85eb45125971625a9ebdb75cc78e01d5c1fa80c4c6e5203f47bc4fab9060ff1615612abd5750565b6044906040519063e2517d3f60e01b82523360048301526024820152fd5b3360009081527fad3228b676f7d3cd4284a5443f17f1962b36e491b30a40b2405849e597ba5fb5602052604081205460ff1615612abd5750565b80600052600060205260406000203360005260205260ff6040600020541615612abd5750565b9060009180835282602052604083209160018060a01b03169182845260205260ff60408420541615600014612bb457808352826020526040832082845260205260408320600160ff198254161790557f2f8788117e7eff1d82e926ec794901d17c78024a50270940304540a733656f0d339380a4600190565b505090565b9060009180835282602052604083209160018060a01b03169182845260205260ff604084205416600014612bb45780835282602052604083208284526020526040832060ff1981541690557ff6391f5c32d9c69d2a47ea670b442974b53935d1edc7fd64eb21e047a839171b339380a4600190565b15612c3557565b60405162461bcd60e51b8152602060048201526015602482015274496e76616c6964207472696767657220707269636560581b6044820152606490fd5b15612c7957565b60405162461bcd60e51b815260206004820152600d60248201526c13dc99195c88195e1c1a5c9959609a1b6044820152606490fd5b15612cb557565b60405162461bcd60e51b815260206004820152600d60248201526c496e76616c6964206e6f6e636560981b6044820152606490fd5b6001600160401b03811161065157601f01601f191660200190565b929192612d1182612cea565b91612d1f60405193846128ca565b8294818452818301116106aa578281602093846000960137010152565b15612d4357565b60405162461bcd60e51b8152602060048201526011602482015270496e76616c6964207369676e617475726560781b6044820152606490fd5b6000198114611c285760010190565b90612d95816128eb565b61ff0082549160081b169061ff001916179055565b80546801000000000000000081101561065157612dcc91600182018155612782565b819291549060031b91821b91600019901b1916179055565b600260015414612df5576002600155565b604051633ee5aeb560e01b8152600490fd5b8151919060418303612e3857612e3192506020820151906060604084015193015160001a90612e43565b9192909190565b505060009160029190565b91907f7fffffffffffffffffffffffffffffff5d576e7357a4501ddfe92f46681b20a08411612ec757926020929160ff608095604051948552168484015260408301526060820152600092839182805260015afa15612ebb5780516001600160a01b03811615612eb257918190565b50809160019190565b604051903d90823e3d90fd5b50505060009160039190565b60048110156128f55780612ee5575050565b60018103612eff5760405163f645eedf60e01b8152600490fd5b60028103612f205760405163fce698f760e01b815260048101839052602490fd5b600314612f2a5750565b602490604051906335e2f38360e21b82526004820152fd5b15612f4957565b60405162461bcd60e51b815260206004820152600f60248201526e13dc99195c881b9bdd08199bdd5b99608a1b6044820152606490fd5b15612f8757565b60405162461bcd60e51b815260206004820152600f60248201526e13dc99195c8818d85b98d95b1b1959608a1b6044820152606490fd5b15612fc557565b60405162461bcd60e51b81526020600482015260116024820152704f72646572206e6f742070656e64696e6760781b6044820152606490fd5b903590601e19813603018212156106aa57018035906001600160401b0382116106aa576020019181360383136106aa57565b1561303757565b60405162461bcd60e51b815260206004820152601960248201527f5072696365206e6f742072656163686564202873686f727429000000000000006044820152606490fd5b1561308357565b60405162461bcd60e51b815260206004820152601860248201527f5072696365206e6f74207265616368656420286c6f6e672900000000000000006044820152606490fd5b519081151582036106aa57565b9060209081838203126106aa5782516001600160401b03938482116106aa5701916101409384848403126106aa57604051948501858110828211176106515760405283518552818401516001600160a01b03811681036106aa578286015260408401519081116106aa57830182601f820112156106aa5780519061315882612cea565b9361316660405195866128ca565b8285528383830101116106aa5782613181938501910161290b565b6040830152613192606082016130c8565b60608301526080810151608083015260a081015160a083015260c081015160c083015260e081015160e08301526101008082015190830152610120809101519060038210156106aa5782015290565b156131e857565b60405162461bcd60e51b81526020600482015260126024820152712737ba103837b9b4ba34b7b71037bbb732b960711b6044820152606490fd5b1561322957565b60405162461bcd60e51b81526020600482015260116024820152702837b9b4ba34b7b7103737ba1037b832b760791b6044820152606490fd5b81810292918115918404141715611c2857565b6040808201359161012c8301808411611c285742116133d9574283116133a357818161331c6103016132a98360ff96612ffe565b976132da6060875180938c60209d8e84019788378201908d808b0135908301528a82015203888101845201826128ca565b519020926000937f19457468657265756d205369676e6564204d6573736167653a0a3332000000008552601c526102fb611258603c8620926060810190612ffe565b7f9c6721068556a3c372f1c2ef739a54f29e29d287d6ef1e7b26a65200f38e6fb082528186528282206001600160a01b039091168252855220541615613360575050565b60649250519062461bcd60e51b82526004820152601760248201527f496e76616c6964207072696365207369676e61747572650000000000000000006044820152fd5b815162461bcd60e51b815260206004820152600f60248201526e507269636520696e2066757475726560881b6044820152606490fd5b815162461bcd60e51b815260206004820152600d60248201526c141c9a58d948195e1c1a5c9959609a1b6044820152606490fd5b6040519061341a82612880565b816101a0600091828152826020820152826040820152826060820152606060808201528260a08201528260c08201528260e082015282610100820152826101208201528261014082015282610160820152826101808201520152565b805182101561279a5760209160051b010190565b6001600160401b0381116106515760051b60200190565b600160ff1b8114611c285760000390565b91908203918211611c2857565b9190926000916126ac8086029086820414861517156137c5576127106134e591046134a1565b818181126137d9575b50508085018181128487129080158216911516176137c5578281039084841280158284131691831216176137c5578381136136ff575061352d906134a1565b84811061356f575050604051928352506001600160a01b0316907f02bd738e372fb8ffb3d159cb4f7645f830360f88becba14d5b1f3589d4f11b2e90602090a2565b61357b919392946134b2565b9180831061368e576004546001600160a01b0393908416803b1561368a57604051630bb03fdb60e21b81526001600160a01b0385166004820152602481018490529086908290604490829084905af1801561367f57908691613667575b5050906135e4916134b2565b91826135f05750505050565b6004541690813b15613663576040516339bc4ead60e01b81526001600160a01b03919091166004820152602481019290925282908290604490829084905af1801561365857613641575b8080612817565b61364b829161289c565b613655578061363a565b80fd5b6040513d84823e3d90fd5b8380fd5b6136709061289c565b61367b5784386135d8565b8480fd5b6040513d88823e3d90fd5b8580fd5b508161369957505050565b6004546001600160a01b031690813b15613663576040516339bc4ead60e01b81526001600160a01b03919091166004820152602481019290925282908290604490829084905af18015613658576136ee575050565b6136f8829161289c565b6136555750565b60045493955093926001600160a01b03929083169150813b1561368a57604051630bb03fdb60e21b81526001600160a01b038516600482015260248101919091529085908290604490829084905af180156137ba576137a7575b506004541690813b15613663576040516339bc4ead60e01b81526001600160a01b03919091166004820152602481019290925282908290604490829084905af18015613658576136ee575050565b6137b39094919461289c565b9238613759565b6040513d87823e3d90fd5b634e487b7160e01b84526011600452602484fd5b9091506137fb6137ef836137f56137ef856134a1565b916134a1565b906134b2565b60405191825260208201527f96e1a301f5f1259604ae4dcb902641261339f6aa9f13ec16f5ab331206fe1cd5604060018060a01b03871692a238806134ee56fe8bbc519c9dde8c119fbb5aad762972250a8ff22b2715c673919ea29ce9fc9962a264697066735822122057230f22ab8d27548beabc7ee66103e95c72e6e509bc757b5f8e8ff8715a6ca864736f6c634300081400332f8788117e7eff1d82e926ec794901d17c78024a50270940304540a733656f0d","linkReferences":{}},"methodIdentifiers":{"BACKEND_SIGNER_ROLE()":"d97ef2b3","DEFAULT_ADMIN_ROLE()":"a217fddf","KEEPER_ROLE()":"364bc15a","ORDER_VALIDITY_PERIOD()":"92feadb5","PRICE_VALIDITY_WINDOW()":"b54496b0","cancelOrder(uint256)":"514fcac7","cancelledOrders(uint256)":"bc15e601","createLimitCloseOrder(address,uint256,uint256,uint256,uint256,bytes)":"af607c35","createLimitOpenOrder(address,string,bool,uint256,uint256,uint256,uint256,uint256,bytes)":"7bc6a972","createStopLossOrder(address,uint256,uint256,uint256,uint256,bytes)":"f19de9d8","executeLimitCloseOrder(uint256,(string,uint256,uint256,bytes))":"0e1df2f5","executeLimitOpenOrder(uint256,(string,uint256,uint256,bytes))":"a4634739","executeStopLossOrder(uint256,(string,uint256,uint256,bytes))":"6c7ad1f0","getOrder(uint256)":"d09ef241","getRoleAdmin(bytes32)":"248a9ca3","getUserCurrentNonce(address)":"53f7af16","getUserOrders(address)":"63c69f08","getUserPendingOrders(address)":"b8542903","grantRole(bytes32,address)":"2f2ff15d","hasRole(bytes32,address)":"91d14854","nextOrderId()":"2a58b330","orders(uint256)":"a85c38ef","positionManager()":"791b98bc","renounceRole(bytes32,address)":"36568abe","revokeRole(bytes32,address)":"d547741f","riskManager()":"47842663","supportsInterface(bytes4)":"01ffc9a7","tradingFeeBps()":"924cca9a","treasuryManager()":"3cea70d9","updateContracts(address,address,address)":"6dca4d44","updateTradingFee(uint256)":"e1a67828","usdc()":"3e413bee","userOrderNonces(address)":"7acba680","userOrders(address,uint256)":"856652e9"},"id":49}