{"abi":[{"type":"constructor","inputs":[{"name":"_usdc","type":"address","internalType":"address"},{"name":"_riskManager","type":"address","internalType":"address"},{"name":"_positionManager","type":"address","internalType":"address"},{"name":"_treasuryManager","type":"address","internalType":"address"},{"name":"_backendSigner","type":"address","internalType":"address"}],"stateMutability":"nonpayable"},{"type":"function","name":"BACKEND_SIGNER_ROLE","inputs":[],"outputs":[{"name":"","type":"bytes32","internalType":"bytes32"}],"stateMutability":"view"},{"type":"function","name":"DEFAULT_ADMIN_ROLE","inputs":[],"outputs":[{"name":"","type":"bytes32","internalType":"bytes32"}],"stateMutability":"view"},{"type":"function","name":"PRICE_VALIDITY_WINDOW","inputs":[],"outputs":[{"name":"","type":"uint256","internalType":"uint256"}],"stateMutability":"view"},{"type":"function","name":"closeMarketPosition","inputs":[{"name":"positionId","type":"uint256","internalType":"uint256"},{"name":"signedPrice","type":"tuple","internalType":"struct MarketExecutor.SignedPrice","components":[{"name":"symbol","type":"string","internalType":"string"},{"name":"price","type":"uint256","internalType":"uint256"},{"name":"timestamp","type":"uint256","internalType":"uint256"},{"name":"signature","type":"bytes","internalType":"bytes"}]}],"outputs":[],"stateMutability":"nonpayable"},{"type":"function","name":"closeMarketPositionMeta","inputs":[{"name":"trader","type":"address","internalType":"address"},{"name":"positionId","type":"uint256","internalType":"uint256"},{"name":"signedPrice","type":"tuple","internalType":"struct MarketExecutor.SignedPrice","components":[{"name":"symbol","type":"string","internalType":"string"},{"name":"price","type":"uint256","internalType":"uint256"},{"name":"timestamp","type":"uint256","internalType":"uint256"},{"name":"signature","type":"bytes","internalType":"bytes"}]},{"name":"userSignature","type":"bytes","internalType":"bytes"}],"outputs":[],"stateMutability":"nonpayable"},{"type":"function","name":"getRoleAdmin","inputs":[{"name":"role","type":"bytes32","internalType":"bytes32"}],"outputs":[{"name":"","type":"bytes32","internalType":"bytes32"}],"stateMutability":"view"},{"type":"function","name":"grantRole","inputs":[{"name":"role","type":"bytes32","internalType":"bytes32"},{"name":"account","type":"address","internalType":"address"}],"outputs":[],"stateMutability":"nonpayable"},{"type":"function","name":"hasRole","inputs":[{"name":"role","type":"bytes32","internalType":"bytes32"},{"name":"account","type":"address","internalType":"address"}],"outputs":[{"name":"","type":"bool","internalType":"bool"}],"stateMutability":"view"},{"type":"function","name":"liquidatePosition","inputs":[{"name":"positionId","type":"uint256","internalType":"uint256"},{"name":"signedPrice","type":"tuple","internalType":"struct MarketExecutor.SignedPrice","components":[{"name":"symbol","type":"string","internalType":"string"},{"name":"price","type":"uint256","internalType":"uint256"},{"name":"timestamp","type":"uint256","internalType":"uint256"},{"name":"signature","type":"bytes","internalType":"bytes"}]}],"outputs":[],"stateMutability":"nonpayable"},{"type":"function","name":"liquidationFeeBps","inputs":[],"outputs":[{"name":"","type":"uint256","internalType":"uint256"}],"stateMutability":"view"},{"type":"function","name":"metaNonces","inputs":[{"name":"","type":"address","internalType":"address"}],"outputs":[{"name":"","type":"uint256","internalType":"uint256"}],"stateMutability":"view"},{"type":"function","name":"nonces","inputs":[{"name":"","type":"address","internalType":"address"}],"outputs":[{"name":"","type":"uint256","internalType":"uint256"}],"stateMutability":"view"},{"type":"function","name":"openMarketPosition","inputs":[{"name":"symbol","type":"string","internalType":"string"},{"name":"isLong","type":"bool","internalType":"bool"},{"name":"collateral","type":"uint256","internalType":"uint256"},{"name":"leverage","type":"uint256","internalType":"uint256"},{"name":"signedPrice","type":"tuple","internalType":"struct MarketExecutor.SignedPrice","components":[{"name":"symbol","type":"string","internalType":"string"},{"name":"price","type":"uint256","internalType":"uint256"},{"name":"timestamp","type":"uint256","internalType":"uint256"},{"name":"signature","type":"bytes","internalType":"bytes"}]}],"outputs":[{"name":"positionId","type":"uint256","internalType":"uint256"}],"stateMutability":"nonpayable"},{"type":"function","name":"openMarketPositionMeta","inputs":[{"name":"trader","type":"address","internalType":"address"},{"name":"symbol","type":"string","internalType":"string"},{"name":"isLong","type":"bool","internalType":"bool"},{"name":"collateral","type":"uint256","internalType":"uint256"},{"name":"leverage","type":"uint256","internalType":"uint256"},{"name":"signedPrice","type":"tuple","internalType":"struct MarketExecutor.SignedPrice","components":[{"name":"symbol","type":"string","internalType":"string"},{"name":"price","type":"uint256","internalType":"uint256"},{"name":"timestamp","type":"uint256","internalType":"uint256"},{"name":"signature","type":"bytes","internalType":"bytes"}]},{"name":"userSignature","type":"bytes","internalType":"bytes"}],"outputs":[{"name":"positionId","type":"uint256","internalType":"uint256"}],"stateMutability":"nonpayable"},{"type":"function","name":"positionManager","inputs":[],"outputs":[{"name":"","type":"address","internalType":"contract IPositionManager"}],"stateMutability":"view"},{"type":"function","name":"renounceRole","inputs":[{"name":"role","type":"bytes32","internalType":"bytes32"},{"name":"callerConfirmation","type":"address","internalType":"address"}],"outputs":[],"stateMutability":"nonpayable"},{"type":"function","name":"revokeRole","inputs":[{"name":"role","type":"bytes32","internalType":"bytes32"},{"name":"account","type":"address","internalType":"address"}],"outputs":[],"stateMutability":"nonpayable"},{"type":"function","name":"riskManager","inputs":[],"outputs":[{"name":"","type":"address","internalType":"contract IRiskManager"}],"stateMutability":"view"},{"type":"function","name":"supportsInterface","inputs":[{"name":"interfaceId","type":"bytes4","internalType":"bytes4"}],"outputs":[{"name":"","type":"bool","internalType":"bool"}],"stateMutability":"view"},{"type":"function","name":"tradingFeeBps","inputs":[],"outputs":[{"name":"","type":"uint256","internalType":"uint256"}],"stateMutability":"view"},{"type":"function","name":"treasuryManager","inputs":[],"outputs":[{"name":"","type":"address","internalType":"contract ITreasuryManager"}],"stateMutability":"view"},{"type":"function","name":"updateContracts","inputs":[{"name":"_riskManager","type":"address","internalType":"address"},{"name":"_positionManager","type":"address","internalType":"address"},{"name":"_treasuryManager","type":"address","internalType":"address"}],"outputs":[],"stateMutability":"nonpayable"},{"type":"function","name":"updateFees","inputs":[{"name":"_tradingFeeBps","type":"uint256","internalType":"uint256"},{"name":"_liquidationFeeBps","type":"uint256","internalType":"uint256"}],"outputs":[],"stateMutability":"nonpayable"},{"type":"function","name":"usdc","inputs":[],"outputs":[{"name":"","type":"address","internalType":"contract IERC20"}],"stateMutability":"view"},{"type":"event","name":"FeesUpdated","inputs":[{"name":"tradingFeeBps","type":"uint256","indexed":false,"internalType":"uint256"},{"name":"liquidationFeeBps","type":"uint256","indexed":false,"internalType":"uint256"}],"anonymous":false},{"type":"event","name":"MarketOrderExecuted","inputs":[{"name":"positionId","type":"uint256","indexed":true,"internalType":"uint256"},{"name":"trader","type":"address","indexed":true,"internalType":"address"},{"name":"symbol","type":"string","indexed":false,"internalType":"string"},{"name":"isLong","type":"bool","indexed":false,"internalType":"bool"},{"name":"collateral","type":"uint256","indexed":false,"internalType":"uint256"},{"name":"leverage","type":"uint256","indexed":false,"internalType":"uint256"},{"name":"price","type":"uint256","indexed":false,"internalType":"uint256"},{"name":"fee","type":"uint256","indexed":false,"internalType":"uint256"}],"anonymous":false},{"type":"event","name":"MetaTransactionExecuted","inputs":[{"name":"userAddress","type":"address","indexed":true,"internalType":"address"},{"name":"relayerAddress","type":"address","indexed":true,"internalType":"address"},{"name":"nonce","type":"uint256","indexed":false,"internalType":"uint256"}],"anonymous":false},{"type":"event","name":"PositionClosedMarket","inputs":[{"name":"positionId","type":"uint256","indexed":true,"internalType":"uint256"},{"name":"trader","type":"address","indexed":true,"internalType":"address"},{"name":"exitPrice","type":"uint256","indexed":false,"internalType":"uint256"},{"name":"pnl","type":"int256","indexed":false,"internalType":"int256"},{"name":"fee","type":"uint256","indexed":false,"internalType":"uint256"}],"anonymous":false},{"type":"event","name":"PositionLiquidatedMarket","inputs":[{"name":"positionId","type":"uint256","indexed":true,"internalType":"uint256"},{"name":"liquidator","type":"address","indexed":true,"internalType":"address"},{"name":"liquidationPrice","type":"uint256","indexed":false,"internalType":"uint256"},{"name":"liquidationFee","type":"uint256","indexed":false,"internalType":"uint256"}],"anonymous":false},{"type":"event","name":"RoleAdminChanged","inputs":[{"name":"role","type":"bytes32","indexed":true,"internalType":"bytes32"},{"name":"previousAdminRole","type":"bytes32","indexed":true,"internalType":"bytes32"},{"name":"newAdminRole","type":"bytes32","indexed":true,"internalType":"bytes32"}],"anonymous":false},{"type":"event","name":"RoleGranted","inputs":[{"name":"role","type":"bytes32","indexed":true,"internalType":"bytes32"},{"name":"account","type":"address","indexed":true,"internalType":"address"},{"name":"sender","type":"address","indexed":true,"internalType":"address"}],"anonymous":false},{"type":"event","name":"RoleRevoked","inputs":[{"name":"role","type":"bytes32","indexed":true,"internalType":"bytes32"},{"name":"account","type":"address","indexed":true,"internalType":"address"},{"name":"sender","type":"address","indexed":true,"internalType":"address"}],"anonymous":false},{"type":"error","name":"AccessControlBadConfirmation","inputs":[]},{"type":"error","name":"AccessControlUnauthorizedAccount","inputs":[{"name":"account","type":"address","internalType":"address"},{"name":"neededRole","type":"bytes32","internalType":"bytes32"}]},{"type":"error","name":"ECDSAInvalidSignature","inputs":[]},{"type":"error","name":"ECDSAInvalidSignatureLength","inputs":[{"name":"length","type":"uint256","internalType":"uint256"}]},{"type":"error","name":"ECDSAInvalidSignatureS","inputs":[{"name":"s","type":"bytes32","internalType":"bytes32"}]},{"type":"error","name":"ReentrancyGuardReentrantCall","inputs":[]}],"bytecode":{"object":"0x60a034620002b857601f620027b238819003918201601f1916830191906001600160401b03831184841017620002bd578160a09285926040958652833981010312620002b8576200005082620002d3565b9160209262000061848301620002d3565b916200006f848201620002d3565b906200008c60806200008460608401620002d3565b9201620002d3565b60018055600580556032600655936001600160a01b039384169081156200027457841692831562000224578416918215620001d05784169384156200017c5785161562000138576200011295965060805260018060a01b03199182600254161760025581600354161760035560045416176004556200010b33620002e8565b5062000368565b505161238790816200040b823960805181818161034d01528181611380015261162c0152f35b855162461bcd60e51b815260048101889052601e60248201527f4d61726b65744578656375746f723a20496e76616c6964207369676e657200006044820152606490fd5b865162461bcd60e51b815260048101899052602760248201527f4d61726b65744578656375746f723a20496e76616c696420547265617375727960448201526626b0b730b3b2b960c91b6064820152608490fd5b865162461bcd60e51b815260048101899052602760248201527f4d61726b65744578656375746f723a20496e76616c696420506f736974696f6e60448201526626b0b730b3b2b960c91b6064820152608490fd5b865162461bcd60e51b815260048101899052602360248201527f4d61726b65744578656375746f723a20496e76616c6964205269736b4d616e6160448201526233b2b960e91b6064820152608490fd5b865162461bcd60e51b815260048101899052601c60248201527f4d61726b65744578656375746f723a20496e76616c69642055534443000000006044820152606490fd5b600080fd5b634e487b7160e01b600052604160045260246000fd5b51906001600160a01b0382168203620002b857565b6001600160a01b031660008181527fad3228b676f7d3cd4284a5443f17f1962b36e491b30a40b2405849e597ba5fb5602052604081205490919060ff166200036457818052816020526040822081835260205260408220600160ff198254161790553391600080516020620027928339815191528180a4600190565b5090565b6001600160a01b031660008181527f92731b430a99d226833495b5b5a9eee62a15e2a9df1b0a790bc8afce8b03780660205260408120549091907f9c6721068556a3c372f1c2ef739a54f29e29d287d6ef1e7b26a65200f38e6fb09060ff166200040557808352826020526040832082845260205260408320600160ff1982541617905560008051602062002792833981519152339380a4600190565b50509056fe608080604052600436101561001357600080fd5b600090813560e01c90816301ffc9a7146119ee5750806315d61bb314611735578063248a9ca3146117095780632f2ff15d146116cc57806336568abe146116845780633cea70d91461165b5780633e413bee1461161657806347842663146115ed578063615de9ec146111315780636db794371461101e5780636dca4d4414610f78578063744b14b314610bd9578063791b98bc14610bb05780637ecebe0014610b775780637f3e73ae146105f457806391d14854146105a9578063924cca9a1461058b578063a217fddf1461056f578063a83cc6ce1461021b578063b54496b0146101fe578063d547741f146101bd578063d97ef2b314610182578063e031a824146101645763ef7994651461012957600080fd5b34610161576020366003190112610161576020906040906001600160a01b03610150611a8f565b168152600883522054604051908152f35b80fd5b50346101615780600319360112610161576020600654604051908152f35b503461016157806003193601126101615760206040517f9c6721068556a3c372f1c2ef739a54f29e29d287d6ef1e7b26a65200f38e6fb08152f35b5034610161576040366003190112610161576101fa6004356101dd611a79565b90808452836020526101f56001604086200154611b2b565b611bcf565b5080f35b5034610161578060031936011261016157602060405161012c8152f35b5034610161576003199060a0368301126101615767ffffffffffffffff9160043583811161056b57610251903690600401611aa5565b919060243591821515830361049b576044359560843511610567576080906084353603011261056357610282611e35565b610290608435600401612301565b600254604051631a14f6d760e21b81526001600160a01b0392916020908290851681806102c7898d6064358d8b3360048801611ca8565b03915afa801561055857869061051d575b6102e29150611ce1565b6127106102fd6102f460643589611d3d565b60055490611d3d565b049161034760208260045416610313868b611d66565b6040516323b872dd60e01b81523360048201526001600160a01b039092166024830152604482015291829081906064820190565b03818a867f0000000000000000000000000000000000000000000000000000000000000000165af180156104d35787906104e2575b6103869150611d73565b8060045416803b156104de57604051630bb03fdb60e21b8152336004820152602481018590529087908290604490829084905af180156104d3578693929188916104b4575b5050600354166020602460843501359384928a8a896104066040519788968795869463c286db6960e01b8652606435928d3360048901611dbf565b03925af19687156104a85796610465575b50926104567f478aee7cc01a0087f4d0a7aa470779497ad1eec02b9c1dd6edcfaaa28e3e850a93602098938896604051958695339a6064359388611dfd565b0390a360018055604051908152f35b96919550926020873d6020116104a0575b8161048360209383611c58565b8101031261049b579551909590949092610456610417565b600080fd5b3d9150610476565b604051903d90823e3d90fd5b6104c19192939450611c44565b6104cf5790849186386103cb565b8580fd5b6040513d89823e3d90fd5b8680fd5b506020813d602011610515575b816104fc60209383611c58565b810103126104de5761051061038691611c7a565b61037c565b3d91506104ef565b506020813d602011610550575b8161053760209383611c58565b810103126104cf5761054b6102e291611c7a565b6102d8565b3d915061052a565b6040513d88823e3d90fd5b8380fd5b8480fd5b8280fd5b5034610161578060031936011261016157602090604051908152f35b50346101615780600319360112610161576020600554604051908152f35b50346101615760403660031901126101615760406105c5611a79565b91600435815280602052209060018060a01b0316600052602052602060ff604060002054166040519015158152f35b503461016157600319608036820112610b735761060f611a8f565b9067ffffffffffffffff6044351161056b5760809060443536030112610b735760643567ffffffffffffffff811161056b576106516024913690600401611aa5565b909261065b611e35565b60035460405163eb02c30160e01b81528435600482015293869185919082906001600160a01b03165afa918215610b685785908690879488968991610b34575b5060018060a01b03851689526008602052604089205490604051916001600160601b03198760601b166020840152602435603484015260548301523060601b6074830152606882528160a081011067ffffffffffffffff60a084011117610b1e576107b16107ef9561077c6107696107606107b8978f9e8f90603c61075a928b60a060ff9d01604052602081519101207f19457468657265756d205369676e6564204d6573736167653a0a3332000000008252601c5220923691611e74565b90611f22565b90929192611fe2565b6001600160a01b038a8116911614611eab565b6001600160a01b0388168b52600860205260408b20805461079c90611f06565b90556001600160a01b0388811691161461213a565b1615612191565b602081519101206107ea604435600401916107dd6107d684806121e7565b3691611e74565b602081519101201461221a565b612301565b8360018060a01b03600354169360206024604435013595604460405180998193632d6ce61d60e01b835260243560048401528a60248401525af1958615610a5d578296610ae5575b506108486127109160055490611d3d565b049261085d846108588884612266565b612282565b6108698382121561229b565b6004546001600160a01b0316803b1561056357604051630bb03fdb60e21b81526001600160a01b0386166004820152602481018790529084908290604490829084905af1908115610ada578491610ac6575b50871315610a7c57506004546001600160a01b0316803b1561056b576040516339bc4ead60e01b81526001600160a01b0385166004820152602481019290925282908290604490829084905af18015610a5d57610a68575b50508184116109e3575b6001600160a01b03811685526008602052604085205460001981019081116109cf576040519081527fe7f66e17fba5f2afc1760028e92b1c8352e7e6d7d9fc02841fbcd0597d78e73e92919033906001600160a01b038316907f03a8e3abe17734f998ec7aacc8db66f8ab07e8096a306018130db6d465f0da7490602090a3604080519485526020850195909552938301526001600160a01b03909216916024359180606081015b0390a36001805580f35b634e487b7160e01b86526011600452602486fd5b60045485906001600160a01b03166109fb8487611f15565b90803b1561056b57604051630aba722b60e41b81526001600160a01b0385166004820152602481019290925282908290818381604481015b03925af18015610a5d57610a49575b505061091d565b610a5290611c44565b610567578438610a42565b6040513d84823e3d90fd5b610a7190611c44565b610567578438610913565b6004549091506001600160a01b0316803b1561056b576040516339bc4ead60e01b81526001600160a01b038516600482015260248101929092528290829081838160448101610a33565b610acf90611c44565b61056b5782386108bb565b6040513d86823e3d90fd5b915094506020813d602011610b16575b81610b0260209383611c58565b8101031261049b5751938590610848610837565b3d9150610af5565b634e487b7160e01b600052604160045260246000fd5b935050935050610b579193503d8087833e610b4f8183611c58565b810190612067565b9a985050505095915094953861069b565b6040513d87823e3d90fd5b5080fd5b5034610161576020366003190112610161576020906040906001600160a01b03610b9f611a8f565b168152600783522054604051908152f35b50346101615780600319360112610161576003546040516001600160a01b039091168152602090f35b503461016157610be836611a43565b90610bf1611e35565b60035460405163eb02c30160e01b8152600481018390526001600160a01b039390918416858084602481855afa8015610f6b576107b19682918395849685928690610f29575b610c7898995090610c5260ff8894938789169e8f331461213a565b8051916020998a938480940120610c6c6107d684806121e7565b8481519101201461221a565b610c8181612301565b01359660448b6040519485938492632d6ce61d60e01b845260048401528b60248401525af1968715610b68578597610ef1575b5050610cc66127109160055490611d3d565b0495610cd6876108588884612266565b610ce28582121561229b565b8260045416803b156104cf57604051630bb03fdb60e21b81526001600160a01b0386166004820152602481018a90529086908290604490829084905af1908115610558578691610edd575b50871315610e5157508160045416803b15610567576040516339bc4ead60e01b81526001600160a01b0385166004820152602481019290925284908290604490829084905af1908115610ada578491610e3d575b5050858511610dd1575b5050506109c57fe7f66e17fba5f2afc1760028e92b1c8352e7e6d7d9fc02841fbcd0597d78e73e935b604051938493846040919493926060820195825260208201520152565b6004541690610de08686611f15565b823b1561056357604051630aba722b60e41b81526001600160a01b0392909216600483015260248201529082908290604490829084905af18015610a5d57610e29575b80610d8b565b610e3290611c44565b6104cf578538610e23565b610e4690611c44565b61056b578238610d81565b929190506004541691823b15610563576040516339bc4ead60e01b81526001600160a01b0392909216600483015260248201529082908290604490829084905af18015610a5d57610ec9575b50506109c57fe7f66e17fba5f2afc1760028e92b1c8352e7e6d7d9fc02841fbcd0597d78e73e93610db4565b610ed290611c44565b6104cf578538610e9d565b610ee690611c44565b610567578438610d2d565b809297508195503d8311610f22575b610f0a8183611c58565b8101031261049b57612710610cc68a94519691610cb4565b503d610f00565b50509050610c78955060ff925083610f4d610c52983d8084833e610b4f8183611c58565b9a98505050509c929891509297929b95929394505050899850610c37565b50604051903d90823e3d90fd5b503461016157606036600319011261016157610f92611a8f565b610f9a611a79565b6044356001600160a01b038181169390929184900361049b578290610fbd611ad3565b1680611005575b501680610fec575b5080610fd6575080f35b6001600160601b0360a01b600454161760045580f35b6001600160601b0360a01b600354161760035538610fcc565b6001600160601b0360a01b600254161760025538610fc4565b50346101615760403660031901126101615760043560243561103e611ad3565b606482116110e0576101f4811161108a57816040917f5c6323bf1c2d7aaea2c091a4751c1c87af7f2864650c336507a77d0557af37a1936005558060065582519182526020820152a180f35b60405162461bcd60e51b815260206004820152602860248201527f4d61726b65744578656375746f723a204c69717569646174696f6e20666565206044820152670e8dede40d0d2ced60c31b6064820152608490fd5b60405162461bcd60e51b8152602060048201526024808201527f4d61726b65744578656375746f723a2054726164696e672066656520746f6f206044820152630d0d2ced60e31b6064820152608490fd5b5034610161576003199060e0368301126101615761114d611a8f565b67ffffffffffffffff929060243584811161056357611170903690600401611aa5565b94909260443515156044350361049b578160a435116105675760809060a435360301126105635760c4359081116105635761127d61076061075a6111bb611290943690600401611aa5565b91906111c5611e35565b60018060a01b038716895260086020526040892054604051906001600160601b03198960601b1660208301528b8a6034840137604435151560f81b60348d8401015260643560358d8401015260843560558d8401015260758c830101523060601b60958c8301015261124460a9828d8101036089810184520182611c58565b602081519101207f19457468657265756d205369676e6564204d6573736167653a0a3332000000008a52601c52603c8920923691611e74565b6001600160a01b03838116911614611eab565b6001600160a01b038116835260086020526040832080546112b090611f06565b90556112c060a435600401612301565b600254604051631a14f6d760e21b81529060209082906001600160a01b031681806112f96044356064356084358d8c8c60048801611ca8565b03915afa8015610ada5784906115b2575b6113149150611ce1565b6127106113286102f4608435606435611d3d565b0461137b602060018060a01b036004541661134584606435611d66565b6040516323b872dd60e01b81526001600160a01b0380881660048301529092166024830152604482015291829081906064820190565b0381887f00000000000000000000000000000000000000000000000000000000000000006001600160a01b03165af18015610b68578590611577575b6113c19150611d73565b6004546001600160a01b0316803b1561056757604051630bb03fdb60e21b81526001600160a01b0384166004820152602481018390529085908290604490829084905af18015610b6857908591611563575b505060018060a01b0360035416936020604051809663c286db6960e01b8252818481611457602460a43501358d8c8c60843592606435926044359260048901611dbf565b03925af1948515610f6b57819561152f575b506001600160a01b03831681526008602052604081205460001981019190821161151b57509484926104567f478aee7cc01a0087f4d0a7aa470779497ad1eec02b9c1dd6edcfaaa28e3e850a9360209860405190815233907f03a8e3abe17734f998ec7aacc8db66f8ab07e8096a306018130db6d465f0da748b60018060a01b03871692a36040516001600160a01b03909316969293849360a435602401359160843591606435916044359188611dfd565b634e487b7160e01b81526011600452602490fd5b9094506020813d60201161155b575b8161154b60209383611c58565b8101031261049b57519338611469565b3d915061153e565b61156c90611c44565b610563578338611413565b506020813d6020116115aa575b8161159160209383611c58565b81010312610567576115a56113c191611c7a565b6113b7565b3d9150611584565b506020813d6020116115e5575b816115cc60209383611c58565b81010312610563576115e061131491611c7a565b61130a565b3d91506115bf565b50346101615780600319360112610161576002546040516001600160a01b039091168152602090f35b50346101615780600319360112610161576040517f00000000000000000000000000000000000000000000000000000000000000006001600160a01b03168152602090f35b50346101615780600319360112610161576004546040516001600160a01b039091168152602090f35b50346101615760403660031901126101615761169e611a79565b336001600160a01b038216036116ba576101fa90600435611bcf565b60405163334bd91960e11b8152600490fd5b5034610161576040366003190112610161576101fa6004356116ec611a79565b90808452836020526117046001604086200154611b2b565b611b51565b503461016157602036600319011261016157600160406020926004358152808452200154604051908152f35b50346101615761174436611a43565b9061174d611e35565b60035460405163eb02c30160e01b8152600481018390526001600160a01b0391821693908581602481885afa9485156105585786958796889389928a918b916119ba575b5060ff61179f911615612191565b60c4888351976117c96020998a809701206117bd6107d684806121e7565b8781519101201461221a565b6117d281612301565b848a600254169101359b8c94604051978896879563623ca9c160e01b8752600487015260248601528a604486015260648501526084840152151560a48301525afa9081156119af578891611976575b5015611913578087913b15610b735781906044604051809481936369e2725360e11b83528a60048401528b60248401525af180156104d3576118fc575b50612710611870879260065490611d3d565b049260045416803b15610b7357604051630aba722b60e41b8152336004820152602481018590529082908290604490829084905af18015610a5d576118e8575b50506040519384528301527f06d053832f13b099b2e2c0600590246fbf1283c642ac43c8b948cdb11193e2d860403393a36001805580f35b6118f190611c44565b6105675784386118b0565b6118709661190c61271092611c44565b965061185e565b60405162461bcd60e51b815260048101849052603560248201527f4d61726b65744578656375746f723a20506f736974696f6e206e6f7420656c6960448201527433b4b13632903337b9103634b8bab4b230ba34b7b760591b6064820152608490fd5b90508381813d83116119a8575b61198d8183611c58565b810103126119a45761199e90611c7a565b38611821565b8780fd5b503d611983565b6040513d8a823e3d90fd5b9250505060ff975061179f93506119db91503d808a833e610b4f8183611c58565b959e949a50929750949550611791915050565b905034610b73576020366003190112610b735760043563ffffffff60e01b811680910361056b5760209250637965db0b60e01b8114908115611a32575b5015158152f35b6301ffc9a760e01b14905038611a2b565b9060031960408184011261049b57600435926024359167ffffffffffffffff831161049b578260809203011261049b5760040190565b602435906001600160a01b038216820361049b57565b600435906001600160a01b038216820361049b57565b9181601f8401121561049b5782359167ffffffffffffffff831161049b576020838186019501011161049b57565b3360009081527fad3228b676f7d3cd4284a5443f17f1962b36e491b30a40b2405849e597ba5fb5602052604081205460ff1615611b0d5750565b6044906040519063e2517d3f60e01b82523360048301526024820152fd5b80600052600060205260406000203360005260205260ff6040600020541615611b0d5750565b9060009180835282602052604083209160018060a01b03169182845260205260ff60408420541615600014611bca57808352826020526040832082845260205260408320600160ff198254161790557f2f8788117e7eff1d82e926ec794901d17c78024a50270940304540a733656f0d339380a4600190565b505090565b9060009180835282602052604083209160018060a01b03169182845260205260ff604084205416600014611bca5780835282602052604083208284526020526040832060ff1981541690557ff6391f5c32d9c69d2a47ea670b442974b53935d1edc7fd64eb21e047a839171b339380a4600190565b67ffffffffffffffff8111610b1e57604052565b90601f8019910116810190811067ffffffffffffffff821117610b1e57604052565b5190811515820361049b57565b908060209392818452848401376000828201840152601f01601f1916010190565b9491608094979693611ccf9260018060a01b0316875260a0602088015260a0870191611c87565b95604085015260608401521515910152565b15611ce857565b60405162461bcd60e51b815260206004820152602760248201527f4d61726b65744578656375746f723a2054726164652076616c69646174696f6e6044820152660819985a5b195960ca1b6064820152608490fd5b81810292918115918404141715611d5057565b634e487b7160e01b600052601160045260246000fd5b91908201809211611d5057565b15611d7a57565b60405162461bcd60e51b815260206004820152601f60248201527f4d61726b65744578656375746f723a205472616e73666572206661696c6564006044820152606490fd5b93979695929160a09592611de792600180891b0316865260c0602087015260c0860191611c87565b9615156040840152606083015260808201520152565b9390611e1a9060a09693999897949960c0875260c0870191611c87565b97151560208501526040840152606083015260808201520152565b600260015414611e46576002600155565b604051633ee5aeb560e01b8152600490fd5b67ffffffffffffffff8111610b1e57601f01601f191660200190565b929192611e8082611e58565b91611e8e6040519384611c58565b82948184528183011161049b578281602093846000960137010152565b15611eb257565b60405162461bcd60e51b815260206004820152602660248201527f4d61726b65744578656375746f723a20496e76616c69642075736572207369676044820152656e617475726560d01b6064820152608490fd5b6000198114611d505760010190565b91908203918211611d5057565b8151919060418303611f5357611f4c92506020820151906060604084015193015160001a90611f5e565b9192909190565b505060009160029190565b91907f7fffffffffffffffffffffffffffffff5d576e7357a4501ddfe92f46681b20a08411611fd657926020929160ff608095604051948552168484015260408301526060820152600092839182805260015afa156104a85780516001600160a01b03811615611fcd57918190565b50809160019190565b50505060009160039190565b60048110156120515780611ff4575050565b6001810361200e5760405163f645eedf60e01b8152600490fd5b6002810361202f5760405163fce698f760e01b815260048101839052602490fd5b6003146120395750565b602490604051906335e2f38360e21b82526004820152fd5b634e487b7160e01b600052602160045260246000fd5b6101408183031261049b578051926020928383015160018060a01b038116810361049b5793604084015167ffffffffffffffff811161049b57840182601f8201121561049b578051906120b982611e58565b936120c76040519586611c58565b82855283838301011161049b5760005b8281106121275750509060009183010152916120f560608201611c7a565b9160808201519160a08101519160c08201519160e08101519161012061010083015192015160ff8116810361049b5790565b81810184015185820185015283016120d7565b1561214157565b60405162461bcd60e51b815260206004820152602260248201527f4d61726b65744578656375746f723a204e6f7420706f736974696f6e206f776e60448201526132b960f11b6064820152608490fd5b1561219857565b60405162461bcd60e51b815260206004820152602160248201527f4d61726b65744578656375746f723a20506f736974696f6e206e6f74206f70656044820152603760f91b6064820152608490fd5b903590601e198136030182121561049b570180359067ffffffffffffffff821161049b5760200191813603831361049b57565b1561222157565b60405162461bcd60e51b815260206004820152601f60248201527f4d61726b65744578656375746f723a2053796d626f6c206d69736d61746368006044820152606490fd5b91909160008382019384129112908015821691151617611d5057565b81810392916000138015828513169184121617611d5057565b156122a257565b60405162461bcd60e51b815260206004820152603160248201527f4d61726b65744578656375746f723a204c6f7373206578636565647320636f6c6044820152706c61746572616c2061667465722066656560781b6064820152608490fd5b602001351561230c57565b60405162461bcd60e51b815260206004820152601d60248201527f4d61726b65744578656375746f723a20496e76616c69642070726963650000006044820152606490fdfea2646970667358221220678f595e28ca659ecb616fbcc300b463fa09637c755a95e8324973788f54daa164736f6c634300081400332f8788117e7eff1d82e926ec794901d17c78024a50270940304540a733656f0d","linkReferences":{}},"methodIdentifiers":{"BACKEND_SIGNER_ROLE()":"d97ef2b3","DEFAULT_ADMIN_ROLE()":"a217fddf","PRICE_VALIDITY_WINDOW()":"b54496b0","closeMarketPosition(uint256,(string,uint256,uint256,bytes))":"744b14b3","closeMarketPositionMeta(address,uint256,(string,uint256,uint256,bytes),bytes)":"7f3e73ae","getRoleAdmin(bytes32)":"248a9ca3","grantRole(bytes32,address)":"2f2ff15d","hasRole(bytes32,address)":"91d14854","liquidatePosition(uint256,(string,uint256,uint256,bytes))":"15d61bb3","liquidationFeeBps()":"e031a824","metaNonces(address)":"ef799465","nonces(address)":"7ecebe00","openMarketPosition(string,bool,uint256,uint256,(string,uint256,uint256,bytes))":"a83cc6ce","openMarketPositionMeta(address,string,bool,uint256,uint256,(string,uint256,uint256,bytes),bytes)":"615de9ec","positionManager()":"791b98bc","renounceRole(bytes32,address)":"36568abe","revokeRole(bytes32,address)":"d547741f","riskManager()":"47842663","supportsInterface(bytes4)":"01ffc9a7","tradingFeeBps()":"924cca9a","treasuryManager()":"3cea70d9","updateContracts(address,address,address)":"6dca4d44","updateFees(uint256,uint256)":"6db79437","usdc()":"3e413bee"},"id":14}